{
  "_format": "hh-sol-artifact-1",
  "contractName": "OneClickReceiptNFT",
  "sourceName": "contracts/OneClickReceiptNFT.sol",
  "abi": [
    {
      "inputs": [
        {
          "internalType": "string",
          "name": "_baseURI",
          "type": "string"
        }
      ],
      "stateMutability": "nonpayable",
      "type": "constructor"
    },
    {
      "inputs": [
        {
          "internalType": "address",
          "name": "sender",
          "type": "address"
        },
        {
          "internalType": "uint256",
          "name": "tokenId",
          "type": "uint256"
        },
        {
          "internalType": "address",
          "name": "owner",
          "type": "address"
        }
      ],
      "name": "ERC721IncorrectOwner",
      "type": "error"
    },
    {
      "inputs": [
        {
          "internalType": "address",
          "name": "operator",
          "type": "address"
        },
        {
          "internalType": "uint256",
          "name": "tokenId",
          "type": "uint256"
        }
      ],
      "name": "ERC721InsufficientApproval",
      "type": "error"
    },
    {
      "inputs": [
        {
          "internalType": "address",
          "name": "approver",
          "type": "address"
        }
      ],
      "name": "ERC721InvalidApprover",
      "type": "error"
    },
    {
      "inputs": [
        {
          "internalType": "address",
          "name": "operator",
          "type": "address"
        }
      ],
      "name": "ERC721InvalidOperator",
      "type": "error"
    },
    {
      "inputs": [
        {
          "internalType": "address",
          "name": "owner",
          "type": "address"
        }
      ],
      "name": "ERC721InvalidOwner",
      "type": "error"
    },
    {
      "inputs": [
        {
          "internalType": "address",
          "name": "receiver",
          "type": "address"
        }
      ],
      "name": "ERC721InvalidReceiver",
      "type": "error"
    },
    {
      "inputs": [
        {
          "internalType": "address",
          "name": "sender",
          "type": "address"
        }
      ],
      "name": "ERC721InvalidSender",
      "type": "error"
    },
    {
      "inputs": [
        {
          "internalType": "uint256",
          "name": "tokenId",
          "type": "uint256"
        }
      ],
      "name": "ERC721NonexistentToken",
      "type": "error"
    },
    {
      "inputs": [
        {
          "internalType": "address",
          "name": "owner",
          "type": "address"
        }
      ],
      "name": "OwnableInvalidOwner",
      "type": "error"
    },
    {
      "inputs": [
        {
          "internalType": "address",
          "name": "account",
          "type": "address"
        }
      ],
      "name": "OwnableUnauthorizedAccount",
      "type": "error"
    },
    {
      "anonymous": false,
      "inputs": [
        {
          "indexed": true,
          "internalType": "address",
          "name": "owner",
          "type": "address"
        },
        {
          "indexed": true,
          "internalType": "address",
          "name": "approved",
          "type": "address"
        },
        {
          "indexed": true,
          "internalType": "uint256",
          "name": "tokenId",
          "type": "uint256"
        }
      ],
      "name": "Approval",
      "type": "event"
    },
    {
      "anonymous": false,
      "inputs": [
        {
          "indexed": true,
          "internalType": "address",
          "name": "owner",
          "type": "address"
        },
        {
          "indexed": true,
          "internalType": "address",
          "name": "operator",
          "type": "address"
        },
        {
          "indexed": false,
          "internalType": "bool",
          "name": "approved",
          "type": "bool"
        }
      ],
      "name": "ApprovalForAll",
      "type": "event"
    },
    {
      "anonymous": false,
      "inputs": [
        {
          "indexed": true,
          "internalType": "address",
          "name": "previousOwner",
          "type": "address"
        },
        {
          "indexed": true,
          "internalType": "address",
          "name": "newOwner",
          "type": "address"
        }
      ],
      "name": "OwnershipTransferred",
      "type": "event"
    },
    {
      "anonymous": false,
      "inputs": [
        {
          "indexed": true,
          "internalType": "address",
          "name": "from",
          "type": "address"
        },
        {
          "indexed": true,
          "internalType": "address",
          "name": "to",
          "type": "address"
        },
        {
          "indexed": true,
          "internalType": "uint256",
          "name": "tokenId",
          "type": "uint256"
        }
      ],
      "name": "Transfer",
      "type": "event"
    },
    {
      "inputs": [
        {
          "internalType": "address",
          "name": "to",
          "type": "address"
        },
        {
          "internalType": "uint256",
          "name": "tokenId",
          "type": "uint256"
        }
      ],
      "name": "approve",
      "outputs": [],
      "stateMutability": "nonpayable",
      "type": "function"
    },
    {
      "inputs": [
        {
          "internalType": "address",
          "name": "owner",
          "type": "address"
        }
      ],
      "name": "balanceOf",
      "outputs": [
        {
          "internalType": "uint256",
          "name": "",
          "type": "uint256"
        }
      ],
      "stateMutability": "view",
      "type": "function"
    },
    {
      "inputs": [],
      "name": "baseURI",
      "outputs": [
        {
          "internalType": "string",
          "name": "",
          "type": "string"
        }
      ],
      "stateMutability": "view",
      "type": "function"
    },
    {
      "inputs": [
        {
          "internalType": "uint256",
          "name": "tokenId",
          "type": "uint256"
        }
      ],
      "name": "getApproved",
      "outputs": [
        {
          "internalType": "address",
          "name": "",
          "type": "address"
        }
      ],
      "stateMutability": "view",
      "type": "function"
    },
    {
      "inputs": [
        {
          "internalType": "address",
          "name": "owner",
          "type": "address"
        },
        {
          "internalType": "address",
          "name": "operator",
          "type": "address"
        }
      ],
      "name": "isApprovedForAll",
      "outputs": [
        {
          "internalType": "bool",
          "name": "",
          "type": "bool"
        }
      ],
      "stateMutability": "view",
      "type": "function"
    },
    {
      "inputs": [
        {
          "internalType": "address",
          "name": "to",
          "type": "address"
        }
      ],
      "name": "mintTo",
      "outputs": [
        {
          "internalType": "uint256",
          "name": "tokenId",
          "type": "uint256"
        }
      ],
      "stateMutability": "nonpayable",
      "type": "function"
    },
    {
      "inputs": [],
      "name": "name",
      "outputs": [
        {
          "internalType": "string",
          "name": "",
          "type": "string"
        }
      ],
      "stateMutability": "view",
      "type": "function"
    },
    {
      "inputs": [],
      "name": "nextId",
      "outputs": [
        {
          "internalType": "uint256",
          "name": "",
          "type": "uint256"
        }
      ],
      "stateMutability": "view",
      "type": "function"
    },
    {
      "inputs": [],
      "name": "owner",
      "outputs": [
        {
          "internalType": "address",
          "name": "",
          "type": "address"
        }
      ],
      "stateMutability": "view",
      "type": "function"
    },
    {
      "inputs": [
        {
          "internalType": "uint256",
          "name": "tokenId",
          "type": "uint256"
        }
      ],
      "name": "ownerOf",
      "outputs": [
        {
          "internalType": "address",
          "name": "",
          "type": "address"
        }
      ],
      "stateMutability": "view",
      "type": "function"
    },
    {
      "inputs": [],
      "name": "renounceOwnership",
      "outputs": [],
      "stateMutability": "nonpayable",
      "type": "function"
    },
    {
      "inputs": [
        {
          "internalType": "address",
          "name": "from",
          "type": "address"
        },
        {
          "internalType": "address",
          "name": "to",
          "type": "address"
        },
        {
          "internalType": "uint256",
          "name": "tokenId",
          "type": "uint256"
        }
      ],
      "name": "safeTransferFrom",
      "outputs": [],
      "stateMutability": "nonpayable",
      "type": "function"
    },
    {
      "inputs": [
        {
          "internalType": "address",
          "name": "from",
          "type": "address"
        },
        {
          "internalType": "address",
          "name": "to",
          "type": "address"
        },
        {
          "internalType": "uint256",
          "name": "tokenId",
          "type": "uint256"
        },
        {
          "internalType": "bytes",
          "name": "data",
          "type": "bytes"
        }
      ],
      "name": "safeTransferFrom",
      "outputs": [],
      "stateMutability": "nonpayable",
      "type": "function"
    },
    {
      "inputs": [
        {
          "internalType": "address",
          "name": "operator",
          "type": "address"
        },
        {
          "internalType": "bool",
          "name": "approved",
          "type": "bool"
        }
      ],
      "name": "setApprovalForAll",
      "outputs": [],
      "stateMutability": "nonpayable",
      "type": "function"
    },
    {
      "inputs": [
        {
          "internalType": "string",
          "name": "_u",
          "type": "string"
        }
      ],
      "name": "setBaseURI",
      "outputs": [],
      "stateMutability": "nonpayable",
      "type": "function"
    },
    {
      "inputs": [
        {
          "internalType": "bytes4",
          "name": "interfaceId",
          "type": "bytes4"
        }
      ],
      "name": "supportsInterface",
      "outputs": [
        {
          "internalType": "bool",
          "name": "",
          "type": "bool"
        }
      ],
      "stateMutability": "view",
      "type": "function"
    },
    {
      "inputs": [],
      "name": "symbol",
      "outputs": [
        {
          "internalType": "string",
          "name": "",
          "type": "string"
        }
      ],
      "stateMutability": "view",
      "type": "function"
    },
    {
      "inputs": [
        {
          "internalType": "uint256",
          "name": "tokenId",
          "type": "uint256"
        }
      ],
      "name": "tokenURI",
      "outputs": [
        {
          "internalType": "string",
          "name": "",
          "type": "string"
        }
      ],
      "stateMutability": "view",
      "type": "function"
    },
    {
      "inputs": [
        {
          "internalType": "address",
          "name": "from",
          "type": "address"
        },
        {
          "internalType": "address",
          "name": "to",
          "type": "address"
        },
        {
          "internalType": "uint256",
          "name": "tokenId",
          "type": "uint256"
        }
      ],
      "name": "transferFrom",
      "outputs": [],
      "stateMutability": "nonpayable",
      "type": "function"
    },
    {
      "inputs": [
        {
          "internalType": "address",
          "name": "newOwner",
          "type": "address"
        }
      ],
      "name": "transferOwnership",
      "outputs": [],
      "stateMutability": "nonpayable",
      "type": "function"
    }
  ],
  "bytecode": "0x608060405260016007553480156200001657600080fd5b506040516200170f3803806200170f83398101604081905262000039916200015c565b336040518060400160405280601081526020016f13db9950db1a58dac8149958d95a5c1d60821b8152506040518060400160405280600481526020016313d0d49560e21b8152508160009081620000919190620002c0565b506001620000a08282620002c0565b5050506001600160a01b038116620000d257604051631e4fbdf760e01b81526000600482015260240160405180910390fd5b620000dd81620000f4565b506008620000ec8282620002c0565b50506200038c565b600680546001600160a01b038381166001600160a01b0319831681179093556040519116919082907f8be0079c531659141344cd1fd0a4f28419497f9722a3daafe3b4186f6b6457e090600090a35050565b634e487b7160e01b600052604160045260246000fd5b600060208083850312156200017057600080fd5b82516001600160401b03808211156200018857600080fd5b818501915085601f8301126200019d57600080fd5b815181811115620001b257620001b262000146565b604051601f8201601f19908116603f01168101908382118183101715620001dd57620001dd62000146565b816040528281528886848701011115620001f657600080fd5b600093505b828410156200021a5784840186015181850187015292850192620001fb565b600086848301015280965050505050505092915050565b600181811c908216806200024657607f821691505b6020821081036200026757634e487b7160e01b600052602260045260246000fd5b50919050565b601f821115620002bb57600081815260208120601f850160051c81016020861015620002965750805b601f850160051c820191505b81811015620002b757828155600101620002a2565b5050505b505050565b81516001600160401b03811115620002dc57620002dc62000146565b620002f481620002ed845462000231565b846200026d565b602080601f8311600181146200032c5760008415620003135750858301515b600019600386901b1c1916600185901b178555620002b7565b600085815260208120601f198616915b828110156200035d578886015182559484019460019091019084016200033c565b50858210156200037c5787850151600019600388901b60f8161c191681555b5050505050600190811b01905550565b611373806200039c6000396000f3fe608060405234801561001057600080fd5b506004361061012c5760003560e01c806370a08231116100ad578063a22cb46511610071578063a22cb46514610260578063b88d4fde14610273578063c87b56dd14610286578063e985e9c514610299578063f2fde38b146102ac57600080fd5b806370a0823114610219578063715018a61461022c578063755edd17146102345780638da5cb5b1461024757806395d89b411461025857600080fd5b806342842e0e116100f457806342842e0e146101c157806355f804b3146101d457806361b8ce8c146101e75780636352211e146101fe5780636c0360eb1461021157600080fd5b806301ffc9a71461013157806306fdde0314610159578063081812fc1461016e578063095ea7b31461019957806323b872dd146101ae575b600080fd5b61014461013f366004610e49565b6102bf565b60405190151581526020015b60405180910390f35b610161610311565b6040516101509190610eb6565b61018161017c366004610ec9565b6103a3565b6040516001600160a01b039091168152602001610150565b6101ac6101a7366004610ef9565b6103cc565b005b6101ac6101bc366004610f23565b6103db565b6101ac6101cf366004610f23565b61046b565b6101ac6101e2366004610f5f565b61048b565b6101f060075481565b604051908152602001610150565b61018161020c366004610ec9565b6104a0565b6101616104ab565b6101f0610227366004610fd1565b610539565b6101ac610581565b6101f0610242366004610fd1565b610595565b6006546001600160a01b0316610181565b6101616105c4565b6101ac61026e366004610fec565b6105d3565b6101ac61028136600461103e565b6105de565b610161610294366004610ec9565b6105f6565b6101446102a736600461111a565b61065e565b6101ac6102ba366004610fd1565b61068c565b60006001600160e01b031982166380ac58cd60e01b14806102f057506001600160e01b03198216635b5e139f60e01b145b8061030b57506301ffc9a760e01b6001600160e01b03198316145b92915050565b6060600080546103209061114d565b80601f016020809104026020016040519081016040528092919081815260200182805461034c9061114d565b80156103995780601f1061036e57610100808354040283529160200191610399565b820191906000526020600020905b81548152906001019060200180831161037c57829003601f168201915b5050505050905090565b60006103ae826106ca565b506000828152600460205260409020546001600160a01b031661030b565b6103d7828233610703565b5050565b6001600160a01b03821661040a57604051633250574960e11b8152600060048201526024015b60405180910390fd5b6000610417838333610710565b9050836001600160a01b0316816001600160a01b031614610465576040516364283d7b60e01b81526001600160a01b0380861660048301526024820184905282166044820152606401610401565b50505050565b610486838383604051806020016040528060008152506105de565b505050565b610493610809565b60086104868284836111cd565b600061030b826106ca565b600880546104b89061114d565b80601f01602080910402602001604051908101604052809291908181526020018280546104e49061114d565b80156105315780601f1061050657610100808354040283529160200191610531565b820191906000526020600020905b81548152906001019060200180831161051457829003601f168201915b505050505081565b60006001600160a01b038216610565576040516322718ad960e21b815260006004820152602401610401565b506001600160a01b031660009081526003602052604090205490565b610589610809565b6105936000610836565b565b600061059f610809565b600780549060006105af8361128d565b9190505590506105bf8282610888565b919050565b6060600180546103209061114d565b6103d73383836108a2565b6105e98484846103db565b6104653385858585610941565b6060610601826106ca565b50600061060c610a6c565b9050600081511161062c5760405180602001604052806000815250610657565b8061063684610a7b565b6040516020016106479291906112b4565b6040516020818303038152906040525b9392505050565b6001600160a01b03918216600090815260056020908152604080832093909416825291909152205460ff1690565b610694610809565b6001600160a01b0381166106be57604051631e4fbdf760e01b815260006004820152602401610401565b6106c781610836565b50565b6000818152600260205260408120546001600160a01b03168061030b57604051637e27328960e01b815260048101849052602401610401565b6104868383836001610b0e565b6000828152600260205260408120546001600160a01b039081169083161561073d5761073d818486610c14565b6001600160a01b0381161561077b5761075a600085600080610b0e565b6001600160a01b038116600090815260036020526040902080546000190190555b6001600160a01b038516156107aa576001600160a01b0385166000908152600360205260409020805460010190555b60008481526002602052604080822080546001600160a01b0319166001600160a01b0389811691821790925591518793918516917fddf252ad1be2c89b69c2b068fc378daa952ba7f163c4a11628f55a4df523b3ef91a4949350505050565b6006546001600160a01b031633146105935760405163118cdaa760e01b8152336004820152602401610401565b600680546001600160a01b038381166001600160a01b0319831681179093556040519116919082907f8be0079c531659141344cd1fd0a4f28419497f9722a3daafe3b4186f6b6457e090600090a35050565b6103d7828260405180602001604052806000815250610c78565b6001600160a01b0382166108d457604051630b61174360e31b81526001600160a01b0383166004820152602401610401565b6001600160a01b03838116600081815260056020908152604080832094871680845294825291829020805460ff191686151590811790915591519182527f17307eab39ab6107e8899845ad3d59bd9653f200f220920489ca2b5937696c31910160405180910390a3505050565b6001600160a01b0383163b15610a6557604051630a85bd0160e11b81526001600160a01b0384169063150b7a02906109839088908890879087906004016112e3565b6020604051808303816000875af19250505080156109be575060408051601f3d908101601f191682019092526109bb91810190611320565b60015b610a27573d8080156109ec576040519150601f19603f3d011682016040523d82523d6000602084013e6109f1565b606091505b508051600003610a1f57604051633250574960e11b81526001600160a01b0385166004820152602401610401565b805160208201fd5b6001600160e01b03198116630a85bd0160e11b14610a6357604051633250574960e11b81526001600160a01b0385166004820152602401610401565b505b5050505050565b6060600880546103209061114d565b60606000610a8883610c90565b600101905060008167ffffffffffffffff811115610aa857610aa8611028565b6040519080825280601f01601f191660200182016040528015610ad2576020820181803683370190505b5090508181016020015b600019016f181899199a1a9b1b9c1cb0b131b232b360811b600a86061a8153600a8504945084610adc57509392505050565b8080610b2257506001600160a01b03821615155b15610be4576000610b32846106ca565b90506001600160a01b03831615801590610b5e5750826001600160a01b0316816001600160a01b031614155b8015610b715750610b6f818461065e565b155b15610b9a5760405163a9fbf51f60e01b81526001600160a01b0384166004820152602401610401565b8115610be25783856001600160a01b0316826001600160a01b03167f8c5be1e5ebec7d5bd14f71427d1e84f3dd0314c0f7b2291e5b200ac8c7c3b92560405160405180910390a45b505b5050600090815260046020526040902080546001600160a01b0319166001600160a01b0392909216919091179055565b610c1f838383610d68565b610486576001600160a01b038316610c4d57604051637e27328960e01b815260048101829052602401610401565b60405163177e802f60e01b81526001600160a01b038316600482015260248101829052604401610401565b610c828383610dce565b610486336000858585610941565b60008072184f03e93ff9f4daa797ed6e38ed64bf6a1f0160401b8310610ccf5772184f03e93ff9f4daa797ed6e38ed64bf6a1f0160401b830492506040015b6d04ee2d6d415b85acef81000000008310610cfb576d04ee2d6d415b85acef8100000000830492506020015b662386f26fc100008310610d1957662386f26fc10000830492506010015b6305f5e1008310610d31576305f5e100830492506008015b6127108310610d4557612710830492506004015b60648310610d57576064830492506002015b600a831061030b5760010192915050565b60006001600160a01b03831615801590610dc65750826001600160a01b0316846001600160a01b03161480610da25750610da2848461065e565b80610dc657506000828152600460205260409020546001600160a01b038481169116145b949350505050565b6001600160a01b038216610df857604051633250574960e11b815260006004820152602401610401565b6000610e0683836000610710565b90506001600160a01b03811615610486576040516339e3563760e11b815260006004820152602401610401565b6001600160e01b0319811681146106c757600080fd5b600060208284031215610e5b57600080fd5b813561065781610e33565b60005b83811015610e81578181015183820152602001610e69565b50506000910152565b60008151808452610ea2816020860160208601610e66565b601f01601f19169290920160200192915050565b6020815260006106576020830184610e8a565b600060208284031215610edb57600080fd5b5035919050565b80356001600160a01b03811681146105bf57600080fd5b60008060408385031215610f0c57600080fd5b610f1583610ee2565b946020939093013593505050565b600080600060608486031215610f3857600080fd5b610f4184610ee2565b9250610f4f60208501610ee2565b9150604084013590509250925092565b60008060208385031215610f7257600080fd5b823567ffffffffffffffff80821115610f8a57600080fd5b818501915085601f830112610f9e57600080fd5b813581811115610fad57600080fd5b866020828501011115610fbf57600080fd5b60209290920196919550909350505050565b600060208284031215610fe357600080fd5b61065782610ee2565b60008060408385031215610fff57600080fd5b61100883610ee2565b91506020830135801515811461101d57600080fd5b809150509250929050565b634e487b7160e01b600052604160045260246000fd5b6000806000806080858703121561105457600080fd5b61105d85610ee2565b935061106b60208601610ee2565b925060408501359150606085013567ffffffffffffffff8082111561108f57600080fd5b818701915087601f8301126110a357600080fd5b8135818111156110b5576110b5611028565b604051601f8201601f19908116603f011681019083821181831017156110dd576110dd611028565b816040528281528a60208487010111156110f657600080fd5b82602086016020830137600060208483010152809550505050505092959194509250565b6000806040838503121561112d57600080fd5b61113683610ee2565b915061114460208401610ee2565b90509250929050565b600181811c9082168061116157607f821691505b60208210810361118157634e487b7160e01b600052602260045260246000fd5b50919050565b601f82111561048657600081815260208120601f850160051c810160208610156111ae5750805b601f850160051c820191505b81811015610a63578281556001016111ba565b67ffffffffffffffff8311156111e5576111e5611028565b6111f9836111f3835461114d565b83611187565b6000601f84116001811461122d57600085156112155750838201355b600019600387901b1c1916600186901b178355610a65565b600083815260209020601f19861690835b8281101561125e578685013582556020948501946001909201910161123e565b508682101561127b5760001960f88860031b161c19848701351681555b505060018560011b0183555050505050565b6000600182016112ad57634e487b7160e01b600052601160045260246000fd5b5060010190565b600083516112c6818460208801610e66565b8351908301906112da818360208801610e66565b01949350505050565b6001600160a01b038581168252841660208201526040810183905260806060820181905260009061131690830184610e8a565b9695505050505050565b60006020828403121561133257600080fd5b815161065781610e3356fea26469706673582212205d8b1ee24b386ea1cffc5d6ab33da7b861e717d7bd5dc475b81e04739c800b5064736f6c63430008140033",
  "linkReferences": {},
  "deployedLinkReferences": {}
}